{"abi":[{"type":"constructor","inputs":[{"name":"_eas","type":"address","internalType":"contract IEAS"},{"name":"_targetAttester","type":"address","internalType":"address"},{"name":"_initialOwner","type":"address","internalType":"address"}],"stateMutability":"nonpayable"},{"type":"receive","stateMutability":"payable"},{"type":"function","name":"attest","inputs":[{"name":"attestation","type":"tuple","internalType":"struct Attestation","components":[{"name":"uid","type":"bytes32","internalType":"bytes32"},{"name":"schema","type":"bytes32","internalType":"bytes32"},{"name":"time","type":"uint64","internalType":"uint64"},{"name":"expirationTime","type":"uint64","internalType":"uint64"},{"name":"revocationTime","type":"uint64","internalType":"uint64"},{"name":"refUID","type":"bytes32","internalType":"bytes32"},{"name":"recipient","type":"address","internalType":"address"},{"name":"attester","type":"address","internalType":"address"},{"name":"revocable","type":"bool","internalType":"bool"},{"name":"data","type":"bytes","internalType":"bytes"}]}],"outputs":[{"name":"","type":"bool","internalType":"bool"}],"stateMutability":"payable"},{"type":"function","name":"isPayable","inputs":[],"outputs":[{"name":"","type":"bool","internalType":"bool"}],"stateMutability":"pure"},{"type":"function","name":"multiAttest","inputs":[{"name":"attestations","type":"tuple[]","internalType":"struct Attestation[]","components":[{"name":"uid","type":"bytes32","internalType":"bytes32"},{"name":"schema","type":"bytes32","internalType":"bytes32"},{"name":"time","type":"uint64","internalType":"uint64"},{"name":"expirationTime","type":"uint64","internalType":"uint64"},{"name":"revocationTime","type":"uint64","internalType":"uint64"},{"name":"refUID","type":"bytes32","internalType":"bytes32"},{"name":"recipient","type":"address","internalType":"address"},{"name":"attester","type":"address","internalType":"address"},{"name":"revocable","type":"bool","internalType":"bool"},{"name":"data","type":"bytes","internalType":"bytes"}]},{"name":"values","type":"uint256[]","internalType":"uint256[]"}],"outputs":[{"name":"","type":"bool","internalType":"bool"}],"stateMutability":"payable"},{"type":"function","name":"multiRevoke","inputs":[{"name":"attestations","type":"tuple[]","internalType":"struct Attestation[]","components":[{"name":"uid","type":"bytes32","internalType":"bytes32"},{"name":"schema","type":"bytes32","internalType":"bytes32"},{"name":"time","type":"uint64","internalType":"uint64"},{"name":"expirationTime","type":"uint64","internalType":"uint64"},{"name":"revocationTime","type":"uint64","internalType":"uint64"},{"name":"refUID","type":"bytes32","internalType":"bytes32"},{"name":"recipient","type":"address","internalType":"address"},{"name":"attester","type":"address","internalType":"address"},{"name":"revocable","type":"bool","internalType":"bool"},{"name":"data","type":"bytes","internalType":"bytes"}]},{"name":"values","type":"uint256[]","internalType":"uint256[]"}],"outputs":[{"name":"","type":"bool","internalType":"bool"}],"stateMutability":"payable"},{"type":"function","name":"owner","inputs":[],"outputs":[{"name":"","type":"address","internalType":"address"}],"stateMutability":"view"},{"type":"function","name":"renounceOwnership","inputs":[],"outputs":[],"stateMutability":"nonpayable"},{"type":"function","name":"revoke","inputs":[{"name":"attestation","type":"tuple","internalType":"struct Attestation","components":[{"name":"uid","type":"bytes32","internalType":"bytes32"},{"name":"schema","type":"bytes32","internalType":"bytes32"},{"name":"time","type":"uint64","internalType":"uint64"},{"name":"expirationTime","type":"uint64","internalType":"uint64"},{"name":"revocationTime","type":"uint64","internalType":"uint64"},{"name":"refUID","type":"bytes32","internalType":"bytes32"},{"name":"recipient","type":"address","internalType":"address"},{"name":"attester","type":"address","internalType":"address"},{"name":"revocable","type":"bool","internalType":"bool"},{"name":"data","type":"bytes","internalType":"bytes"}]}],"outputs":[{"name":"","type":"bool","internalType":"bool"}],"stateMutability":"payable"},{"type":"function","name":"targetAttester","inputs":[],"outputs":[{"name":"","type":"address","internalType":"address"}],"stateMutability":"view"},{"type":"function","name":"transferOwnership","inputs":[{"name":"newOwner","type":"address","internalType":"address"}],"outputs":[],"stateMutability":"nonpayable"},{"type":"function","name":"updateTargetAttester","inputs":[{"name":"_newTargetAttester","type":"address","internalType":"address"}],"outputs":[],"stateMutability":"nonpayable"},{"type":"function","name":"version","inputs":[],"outputs":[{"name":"","type":"string","internalType":"string"}],"stateMutability":"view"},{"type":"event","name":"OwnershipTransferred","inputs":[{"name":"previousOwner","type":"address","indexed":true,"internalType":"address"},{"name":"newOwner","type":"address","indexed":true,"internalType":"address"}],"anonymous":false},{"type":"error","name":"AccessDenied","inputs":[]},{"type":"error","name":"InsufficientValue","inputs":[]},{"type":"error","name":"InvalidEAS","inputs":[]},{"type":"error","name":"InvalidLength","inputs":[]},{"type":"error","name":"NotPayable","inputs":[]},{"type":"error","name":"OwnableInvalidOwner","inputs":[{"name":"owner","type":"address","internalType":"address"}]},{"type":"error","name":"OwnableUnauthorizedAccount","inputs":[{"name":"account","type":"address","internalType":"address"}]}],"bytecode":{"object":"0x61010060405234801561001157600080fd5b50604051610b55380380610b5583398101604081905261003091610135565b6001608052600360a052600060c05280836001600160a01b038116610068576040516341bc07ff60e11b815260040160405180910390fd5b6001600160a01b0390811660e052811661009c57604051631e4fbdf760e01b81526000600482015260240160405180910390fd5b6100a5816100cd565b5050600180546001600160a01b0319166001600160a01b039290921691909117905550610182565b600080546001600160a01b038381166001600160a01b0319831681178455604051919092169283917f8be0079c531659141344cd1fd0a4f28419497f9722a3daafe3b4186f6b6457e09190a35050565b6001600160a01b038116811461013257600080fd5b50565b60008060006060848603121561014a57600080fd5b83516101558161011d565b60208501519093506101668161011d565b60408501519092506101778161011d565b809150509250925092565b60805160a05160c05160e05161099a6101bb60003960006105fb01526000610260015260006102370152600061020e015261099a6000f3fe6080604052600436106100a05760003560e01c8063aa8fac4111610064578063aa8fac411461016d578063ce46e0461461018d578063e49617e1146101a1578063e60c3505146101b4578063f2fde38b146101c7578063f7c0a00c146101e757600080fd5b806354fd4d50146100c5578063715018a6146100f057806388e5b2d9146101055780638da5cb5b1461012857806391db0b7e1461015a57600080fd5b366100c057604051631574f9f360e01b815260040160405180910390fd5b005b600080fd5b3480156100d157600080fd5b506100da610207565b6040516100e79190610766565b60405180910390f35b3480156100fc57600080fd5b506100be6102aa565b6101186101133660046107e5565b6102be565b60405190151581526020016100e7565b34801561013457600080fd5b506000546001600160a01b03165b6040516001600160a01b0390911681526020016100e7565b6101186101683660046107e5565b61038d565b34801561017957600080fd5b506100be610188366004610851565b61044c565b34801561019957600080fd5b506000610118565b6101186101af366004610881565b610476565b6101186101c2366004610881565b610489565b3480156101d357600080fd5b506100be6101e2366004610851565b61049d565b3480156101f357600080fd5b50600154610142906001600160a01b031681565b60606102327f00000000000000000000000000000000000000000000000000000000000000006104e0565b61025b7f00000000000000000000000000000000000000000000000000000000000000006104e0565b6102847f00000000000000000000000000000000000000000000000000000000000000006104e0565b604051602001610296939291906108bd565b604051602081830303815290604052905090565b6102b2610573565b6102bc60006105a0565b565b60006102c86105f0565b838281146102e95760405163251f56a160e21b815260040160405180910390fd5b3460005b8281101561037d57600086868381811061030957610309610917565b905060200201359050828111156103335760405163044044a560e21b815260040160405180910390fd5b61036089898481811061034857610348610917565b905060200281019061035a919061092d565b50600190565b610371576000945050505050610385565b909103906001016102ed565b506001925050505b949350505050565b60006103976105f0565b838281146103b85760405163251f56a160e21b815260040160405180910390fd5b3460005b8281101561037d5760008686838181106103d8576103d8610917565b905060200201359050828111156104025760405163044044a560e21b815260040160405180910390fd5b61042f89898481811061041757610417610917565b9050602002810190610429919061092d565b82610639565b610440576000945050505050610385565b909103906001016103bc565b610454610573565b600180546001600160a01b0319166001600160a01b0392909216919091179055565b60006104806105f0565b60015b92915050565b60006104936105f0565b6104838234610639565b6104a5610573565b6001600160a01b0381166104d457604051631e4fbdf760e01b8152600060048201526024015b60405180910390fd5b6104dd816105a0565b50565b606060006104ed8361066a565b600101905060008167ffffffffffffffff81111561050d5761050d61094e565b6040519080825280601f01601f191660200182016040528015610537576020820181803683370190505b5090508181016020015b600019016f181899199a1a9b1b9c1cb0b131b232b360811b600a86061a8153600a850494508461054157509392505050565b6000546001600160a01b031633146102bc5760405163118cdaa760e01b81523360048201526024016104cb565b600080546001600160a01b038381166001600160a01b0319831681178455604051919092169283917f8be0079c531659141344cd1fd0a4f28419497f9722a3daafe3b4186f6b6457e09190a35050565b336001600160a01b037f000000000000000000000000000000000000000000000000000000000000000016146102bc57604051634ca8886760e01b815260040160405180910390fd5b6001546000906001600160a01b0316610659610100850160e08601610851565b6001600160a01b0316149392505050565b60008072184f03e93ff9f4daa797ed6e38ed64bf6a1f0160401b83106106a95772184f03e93ff9f4daa797ed6e38ed64bf6a1f0160401b830492506040015b6d04ee2d6d415b85acef810000000083106106d5576d04ee2d6d415b85acef8100000000830492506020015b662386f26fc1000083106106f357662386f26fc10000830492506010015b6305f5e100831061070b576305f5e100830492506008015b612710831061071f57612710830492506004015b60648310610731576064830492506002015b600a83106104835760010192915050565b60005b8381101561075d578181015183820152602001610745565b50506000910152565b6020815260008251806020840152610785816040850160208701610742565b601f01601f19169190910160400192915050565b60008083601f8401126107ab57600080fd5b50813567ffffffffffffffff8111156107c357600080fd5b6020830191508360208260051b85010111156107de57600080fd5b9250929050565b600080600080604085870312156107fb57600080fd5b843567ffffffffffffffff8082111561081357600080fd5b61081f88838901610799565b9096509450602087013591508082111561083857600080fd5b5061084587828801610799565b95989497509550505050565b60006020828403121561086357600080fd5b81356001600160a01b038116811461087a57600080fd5b9392505050565b60006020828403121561089357600080fd5b813567ffffffffffffffff8111156108aa57600080fd5b8201610140818503121561087a57600080fd5b600084516108cf818460208901610742565b8083019050601760f91b80825285516108ef816001850160208a01610742565b6001920191820152835161090a816002840160208801610742565b0160020195945050505050565b634e487b7160e01b600052603260045260246000fd5b6000823561013e1983360301811261094457600080fd5b9190910192915050565b634e487b7160e01b600052604160045260246000fdfea2646970667358221220d95be0f5de49d6b7fd0505158b9455432da1ef9476486c211b00779ba364936664736f6c63430008180033","linkReferences":{}},"methodIdentifiers":{"attest((bytes32,bytes32,uint64,uint64,uint64,bytes32,address,address,bool,bytes))":"e60c3505","isPayable()":"ce46e046","multiAttest((bytes32,bytes32,uint64,uint64,uint64,bytes32,address,address,bool,bytes)[],uint256[])":"91db0b7e","multiRevoke((bytes32,bytes32,uint64,uint64,uint64,bytes32,address,address,bool,bytes)[],uint256[])":"88e5b2d9","owner()":"8da5cb5b","renounceOwnership()":"715018a6","revoke((bytes32,bytes32,uint64,uint64,uint64,bytes32,address,address,bool,bytes))":"e49617e1","targetAttester()":"f7c0a00c","transferOwnership(address)":"f2fde38b","updateTargetAttester(address)":"aa8fac41","version()":"54fd4d50"},"id":24}